:02000002B0004C
:1040000000400B008C740B00000006000C00050241
:084010000401E50C00000000B2
:04401800106E0B001B
:10401C0009480A49884208B505D0094A824202D0AB
:10402C00121A02F0F1FD0748074A0021121A02F099
:10403C0013FE014808BD00BFDCE50320F8730B003C
:10404C0048E6032048E60320EDE7032070B5074E51
:10405C00074C01F0A5F8A41BA4080025AC4200D124
:10406C0070BD56F8043B98470135F7E7AC730B006D
:10407C00D0730B0000F016B808B500F08BF8BDE853
:10408C00084001F045B800F0EDBC00F0EBBC00F0CE
:10409C00F1BC0078B0FA80F040097047012303703E
:1040AC007047704770B590B001F05CFC01F0A4FC57
:1040BC0001F058FC314A324D01460BA802F074F95C
:1040CC000BA801F03EFD01F04DFC2E4A01460BA859
:1040DC0002F06AF90BA801F034FD03A801F057FEB9
:1040EC000FCD06AC0FC42E68266006AD0FCD0BAC01
:1040FC000FC40BA8266001F049FA04460BA8002C4B
:10410C0034D101F05FFA0094ADF80A0002230DF1EE
:10411C000A02032103A801F02FFE1B4903A801F09A
:10412C0049FE01F01FFC03A9002201F0B6FC00239C
:10413C0014220BA9114801F005FB02F0D3FB134923
:10414C0000F05CFE02F0CEFB00F05CFE06A800F076
:10415C009EF9702106A800F0A7F906A90C4800F0FA
:10416C00F3F9039800F086FC10B070BD01F02CFA46
:10417C0000230093024610230721CBE7B0E603206F
:10418C0054E60320A8E60320246E0B00801A0600D8
:10419C0090E6032010B5384CA0B000F0A7FB2368C4
:1041AC00C01A632866D900F0A1FB01A9206033482E
:1041BC0000F09FF900285DD001F0D4FB01F02CFC3D
:1041CC00002857D00A22BDF904100BA802F087FA78
:1041DC000BA907A802F066FA29490FA802F03FFACA
:1041EC000FA907A802F0A5FA0A220446BDF9061089
:1041FC0013A802F074FA13A9204602F09AFA204987
:10420C00044617A802F02BFA17A9204602F091FADF
:10421C000A22BDF9081004461BA802F060FA1BA97B
:10422C00204602F086FA014603A802F03BFA1BA8CE
:10423C0002F0CAF917A802F0C7F913A802F0C4F9E2
:10424C000FA802F0C1F907A802F0BEF90BA802F002
:10425C00BBF9059A002301321BA903A802F075FAD9
:10426C00059A0848002301321BA901F06BFA03A838
:10427C0002F0AAF920B010BDA4E6032090E60320BA
:10428C002C6E0B00B0E603202DE9F047002198B00E
:10429C00012000F0CBFB404B404A414D9A6000247A
:1042AC00C3E900443F4F404E032000F0AFFB3F49B1
:1042BC00284601F009FA3E49384601F005FA3D4915
:1042CC00304601F001FA0FCE0DF1100CA846ACE807
:1042DC000F00B8E80F00D6F800A0CCF800A009AE8B
:1042EC000FC60DF1100CBCE80F00D8F80090C6F802
:1042FC0000900EAE0FC6DFF8D0E0C6F800A00DF1AE
:10430C00240CCEE90044BCE80F0013AE0FC6C6F86F
:10431C00009013AE0EAB7046CDE9014426490096D1
:10432C004FF0100201F016FF0FCF0DF1100CACE89E
:10433C000F000FCDD7F800E0D8F80080CCF800E0E3
:10434C0009AF0FC7C7F8008004AF0FCF0EAD0FC574
:10435C00DFF878C0C5F800E009AFCCE900440FCF16
:10436C0035460FC5154BC5F8008015490294CDE9AB
:10437C0000634FF004020EAB604601F0EBFE02F05E
:10438C00B1FA01460F484FF0FF33224618B0BDE892
:10439C00F04700F035B900BF48E603200000FFFFEE
:1043AC0054E6032068E603207CE603202E6E0B0007
:1043BC00536E0B00786E0B009D6E0B00AF400B0024
:1043CC00A06E0B0090E60320B0E60320A8E60320C5
:1043DC00704710B514210446FFF759FE204610BD56
:1043EC00F8B50E46017C074641F01801C0681D4621
:1043FC00144600F039FDF868012D036888BF46F0BB
:10440C0080069B68314698472544AC42F86805D035
:10441C00036814F8011B9B689847F6E700F02CFD25
:10442C00B0FA80F04009F8BDF8B50F46017C04469F
:10443C0041F01801C0681E46154600F015FDE068F5
:10444C00012E036888BF47F080079B683946984760
:10445C00E06800F011FDC0B9217CE068324641F003
:10446C00180100F0FEFC2E44B54201D10120F8BD2C
:10447C00E06803681B6998470028F7D0E068036878
:10448C005B69984705F8010BEEE70020EFE7002287
:10449C00027042708270C270027142718271C2717C
:1044AC000272427282727047002241F00701017061
:1044BC00027182704270C2714272704713B5036808
:1044CC0001AADC680123A0479DF8040002B010BDCE
:1044DC0038B505460A240F212846FFF7EFFF33288D
:1044EC004FF0010004D000F0EEFD013CF3D120466A
:1044FC0038BDF7B50C4627210546FFF7DFFF00F066
:10450C000800002814BF012600260FD02B686A462D
:10451C00DF68282106232846B847BDF800302380E1
:10452C00BDF802306380BDF80430A380304603B080
:10453C00F0BD13B503688DF804201C6901AA012392
:10454C00A04702B010BD000070B503689B6804461C
:10455C000D469847064630B900F0FCFC274900F0A0
:10456C00A0FE304670BD2A7820212046FFF7E1FFDF
:10457C006A7821212046FFF7DCFFAA782221204609
:10458C00FFF7D7FFEA7823212046FFF7D2FF2A79DD
:10459C0024212046FFF7CDFF6A7925212046FFF71D
:1045AC00C8FFAB791BB126212046FFF787FFAA7AFB
:1045BC002E212046FFF7BDFFAB785B06D1D5EA79FB
:1045CC0032212046FFF7B5FF2A7A33212046FFF728
:1045DC00B0FF6368002B0ADB6A7A22722046302116
:1045EC00FFF7A7FF31212046FFF768FFB9E700224C
:1045FC00227230212046FFF79CFFB2E7A36E0B001E
:10460C0010B5436000230372024B0360C160027457
:10461C0010BD00BFBC6E0B0008B5024B1B681B68BD
:10462C00019308BD4C02030008B5024B1B681B69C3
:10463C00019308BD4C02030008B5024B1B685B6973
:10464C00019308BD4C02030008B5024B1B689B6923
:10465C00019308BD4C02030008B5024B1B68DB69D3
:10466C00019308BD4C02030008B5024B1B681B6A82
:10467C00019308BD4C02030008B5024B1B681B6874
:10468C00019308BD2802030008B5024B1B68DB68C8
:10469C00019308BD2802030008B5024B1B689B69F7
:1046AC00019308BD2802030008B5024B1B68DB69A7
:1046BC00019308BD2802030008B5024B1B681B6A56
:1046CC00019308BD2802030008B5024B1B685B6A06
:1046DC00019308BD2802030008B5024B1B689B6AB6
:1046EC00019308BD2802030008B5024B1B68DB6A66
:1046FC00019308BD2802030008B5024B1B681B6B15
:10470C00019308BD2802030008B5024B1B681B6C03
:10471C00019308BD2802030008B5024B1B681B6DF2
:10472C00019308BD2802030008B5024B1B68DB6827
:10473C00019308BD3C02030008B5024B1B681B69C2
:10474C00019308BD3C02030008B5024B1B685B6972
:10475C00019308BD3C02030008B5024B1B689B6922
:10476C00019308BD3C02030008B5024B1B68DB69D2
:10477C00019308BD3C02030008B5024B1B689B6A01
:10478C00019308BD3C02030008B5024B1B681B6C6F
:10479C00019308BD3C02030008B5024B1B685B6922
:1047AC00019308BD6402030008B5024B1B685B6CE7
:1047BC00019308BD4802030008B5024B1B68DB6C73
:1047CC00019308BD4802030008B5024B1B685B6DE2
:1047DC00019308BD4802030008B5024B1B689B6897
:1047EC00019308BD7802030008B5024B1B681B6DD2
:1047FC00019308BD7802030008B5024B1B689B6D42
:10480C00019308BD7802030008B5024B1B681B6EB0
:10481C00019308BD7802030008B5034B1B68D3F85D
:10482C009830019308BD00007802030008B5034BD3
:10483C001B68D3F8A830019308BD00007802030070
:10484C0008B5034B1B68D3F8B430019308BD0000C6
:10485C007802030008B5034B1B68D3F8D8300193DA
:10486C0008BD00007802030008B5034B1B68D3F8A1
:10487C00DC30019308BD00007802030008B5034B3F
:10488C001B68D3F8EC30019308BD000078020300DC
:10489C0008B5034B1B68D3F8F030019308BD00003A
:1048AC007802030008B5034B1B68D3F80031019361
:1048BC0008BD00007802030008B5034B1B68D3F851
:1048CC000431019308BD00007802030008B5024BC7
:1048DC001B685B68019308BD1802030008B5024B06
:1048EC001B68DB68019308BD1802030008B5024B76
:1048FC001B685B69019308BD1802030008B5024BE5
:10490C001B689B68019308BD6802030008B5024B45
:10491C001B68DB68019308BD6802030008B5024BF5
:10492C001B685B6B019308BD6002030008B5024B6A
:10493C001B681B6D019308BD6002030008B5024B98
:10494C001B68DB6B019308BD4402030008B5024BE6
:10495C001B685B68019308BD4002030008B5024B5D
:10496C001B689B68019308BD4002030008B5024B0D
:10497C001B68DB68019308BD4002030008B5024BBD
:10498C001B681B69019308BD4002030008B5024B6C
:10499C001B685B69019308BD4002030008B5024B1C
:1049AC001B689B69019308BD4002030008B5024BCC
:1049BC001B68DB69019308BD4002030008B5024B7C
:1049CC001B681B6A019308BD4002030008B5024B2B
:1049DC001B681B6B019308BD4002030008B5024B1A
:1049EC001B685B6B019308BD4002030008B5024BCA
:1049FC001B681B6C019308BD4002030008B5024BF9
:104A0C001B685B6C019308BD4002030008B5024BA8
:104A1C001B685B68019308BD2002030008B5024BBC
:104A2C001B685B69019308BD2002030008B5024BAB
:104A3C001B68DB6A019308BD2002030008B5034B19
:104A4C001B68D3F88830019308BD000020020300D6
:104A5C0008B5034B1B68D3F89430019308BD0000D4
:104A6C002002030008B5024B1B681B68019308BDAC
:104A7C001C02030008B5024B1B685B68019308BD60
:104A8C001C02030008B5024B1B689B68019308BD10
:104A9C001C02030008B5024B1B68DB6A019308BDBE
:104AAC001C02030008B5024B1B681B6C019308BD6C
:104ABC001C02030008B5024B1B685B6C019308BD1C
:104ACC001C02030010B54368013B0446436063B904
:104ADC0003689B689847A368013BA3602BB92368C4
:104AEC002046DB68BDE81040184710BD10B50446E1
:104AFC00006808B1FFF7E6FF204610BD00234068B0
:104B0C001A46FFF723BF406800220221FFF72EBF91
:104B1C00002240681146FFF721BF00224068114671
:104B2C00FFF72CBF002340681A461946FFF72EBF2B
:104B3C00002340681A461946FFF730BF4068002131
:104B4C00FFF754BF40680021FFF758BF40680022B0
:104B5C0081F00101FFF72ABF40680022FFF736BF42
:104B6C00002240681146FFF739BF00224068114609
:104B7C00FFF724BF2DE9F04395B014460D460746C8
:104B8C0000F048FA00211C220DA8009102F064F8F4
:104B9C0040230C9320466B460CAA0021FFF7B6FE6F
:104BAC00044600284BD1024601216868FFF7E6FE57
:104BBC000221804622466868FFF7E0FE009E81468F
:104BCC002146002E3BD0002939D17368022B03D02B
:104BDC000A2B11D0F669F4E7B8F1000FFAD071691D
:104BEC0006A8043107AD00F043FA0FCD3C1D0FC4ED
:104BFC002B6823704146EDE7B9F1000FEAD07469D8
:104C0C00102201A802F028F806238DF8143001AD0B
:104C1C0004F108031834186859682A4603C208338B
:104C2C00A3421546F7D101A906A807AD00F000FA7A
:104C3C000FCD3C1D0FC42B6823704946CAE7009862
:104C4C00FFF75CFE384615B0BDE8F083024B034A13
:104C5C001A6000225A607047B8E60320D86E0B0029
:104C6C00002240681146FFF789BE002240681146B9
:104C7C00FFF7A4BE002240681146FFF7AFBE4068A4
:104C8C000022FFF7A3BE4068002281F00101FFF76C
:104C9C008DBE002340681A461946FFF77FBE0023DD
:104CAC0040681A461946FFF771BE0022406811464B
:104CBC00FFF754BE406800220221FFF757BE0023C5
:104CCC0040681A46FFF742BE024B04225A60024A61
:104CDC001A607047C0E60320146F0B0070474174D4
:104CEC00704708B5007CFFF747FD20EAE07008BD6F
:104CFC0008B5007CFFF720FD20EAE07008BD08B580
:104D0C00007CFFF729FD40EAE07008BD08B5007C87
:104D1C00FFF71AFD40EAE07008BD007CFFF724BDE8
:104D2C0037B5457C04462DB1207C03B0BDE830403E
:104D3C00FFF7FABC007C0191FFF71EFD00280199DA
:104D4C00F2DC284603B030BD10B514210446FFF741
:104D5C009EF9204610BD000010B54FF47A7304463E
:104D6C00084611460022C4E90123044B23600123A9
:104D7C0020746374FFF708FD204610BD586F0B00BC
:104D8C007047F8B5064615460C468F18BC4206D03F
:104D9C00336814F8011B9B6830469847F6E72846A1
:104DAC00F8BD007C0022FFF787BC007C0021FFF7D8
:104DBC008BBC007C0021FFF78FBC007C0021FFF72F
:104DCC0093BC007C0021FFF797BC10B5142104465E
:104DDC00FFF75DF9204610BD10B54FF47A73044609
:104DEC0008460021C4E90113034B236020741146CB
:104DFC00FFF78AFC204610BD886F0B00007C002258
:104E0C00FFF73ABC0023007C1A461946FFF73CBC5E
:104E1C007FB500221423CDE90122ADF804300B78C4
:104E2C008DF808304B680393CB680493007C0B7AA5
:104E3C00059301A9FFF770FC07B05DF804FB1FB5E3
:104E4C00003B8DF800104FF06401039118BF012353
:104E5C00694601928DF80830FFF7DAFF05B05DF86E
:104E6C0004FB0123FFF7EBBF007C0022FFF714BC0F
:104E7C00007C0022FFF718BC0121FFF7F9BF38B501
:104E8C000D1E0446006803DDFFF7FCFD18B938BDA4
:104E9C00FFF7F0FD00202060A5600120F7E74174CA
:104EAC0070477047704708B50021007CFFF7CCFBBA
:104EBC0040EAE07008BD08B50121007CFFF7C4FB97
:104ECC0040EAE07008BD08B5007CFFF7B5FB20EAAE
:104EDC00E07008BD08B5007CFFF7A6FB20EAE07087
:104EEC0008BD13B50446007C0191FFF7A5FB002813
:104EFC00019901DC607C20B1207CFFF7ADFB20EA3E
:104F0C00E07002B010BD007CFFF7AEBB10B51421F1
:104F1C000446FFF7BCF8204610BD000010B54FF456
:104F2C007A73044608460021C4E90113044B23603C
:104F3C000123207463741146FFF76EFB204610BDED
:104F4C00B06F0B0010B514220446002101F084FE52
:104F5C00204610BD10B50F4C88B003A8FFF7F2FF28
:104F6C002178BFF35B8F11F001010FD12046019125
:104F7C00FFF78FF8019948B103AA0748FFF7CEFF56
:104F8C002046FFF78BF8054801F028FE024808B0D0
:104F9C0010BD00BFC8E60320CCE60320AF4E0B00CB
:104FAC00704710B518210446FFF771F8204610BD64
:104FBC00F0B5037D062B8DB00E4600F104074FF0C3
:104FCC00000412D000F1080515F8011D0A22304624
:104FDC0000F071F9AF42044419D0002CF4D02E210A
:104FEC00304600F04FF90444EEE72F236A46394669
:104FFC000A208DF80040FFF7CFFB684601F074FEE5
:10500C0033680246DB6869463046984704462046BA
:10501C000DB0F0BD10B5054B0446112240F8043B11
:10502C00002101F019FE204610BD00BFE06F0B00FF
:10503C000346074A10B543F8042B01F1100251F84E
:10504C00044B43F8044B9142F9D10A781A7010BD05
:10505C00E06F0B0010B59DF8084044EA032343EAC7
:10506C00024242EA016104234160037510BD000055
:10507C0007B5064B0360CB7800938B784A78097898
:10508C00FFF7E8FF03B05DF804FB00BFE06F0B0017
:10509C0010B58368044613B1032201469847204695
:1050AC0010BD13B50B460246D0E900016C4684E8EE
:1050BC00030093E8030082E8030094E8030083E80C
:1050CC00030002B010BD0021FFF7A8BC014B186013
:1050DC00704700BFE0E5032008B50B4B43B1FFF769
:1050EC0039FF03681B699847002801DDAFF3008086
:1050FC00064B43B101F036FC03681B699847002846
:10510C0001DDAFF3008008BD0000000000000000CE
:10511C0008B5FFF7E1FFFFF7E9FB014B186008BD8D
:10512C0040E703200548064A064908B5121A01F063
:10513C006BFD054B054A1A6008BD00BF00F4032047
:10514C0004F40320F4730B0000F403201E1C279AB4
:10515C0007B5002300931A466FF07701FFF778FC30
:10516C0003B05DF804FB000007B543880A2B08D098
:10517C00502B0BD1094B1B684BB103B05DF804EB02
:10518C001847FFF7E5FF03B05DF804FB002300931D
:10519C001A466FF07701FFF75BFCF4E7E4E60320B7
:1051AC0010B512480021FFF785FC114B1A68114B02
:1051BC009A42114B0CBF012200221A7001D0FFF74A
:1051CC00B1FFFFF783FB044601F04EFD0B4B13B10F
:1051DC002046AFF3008000210848FFF7AFFBBDE885
:1051EC00104007480021FFF729BC00BFD9500B0025
:1051FC0000F403201E1C279AE0E6032000000000A8
:10520C0075510B00014B00229A607047E8E60320B1
:10521C00024B1A68024B1A60704700BFDCE5032092
:10522C00F8E60320014B024A1A607047FCE60320A3
:10523C0008700B00F8B506460D468F180024BD42C9
:10524C000CD0336815F8011B9B6830469847031E39
:10525C0001DB1C44F3E7002C08BF1C462046F8BDBC
:10526C0013B50446084659B1019101F03DFD236880
:10527C000199DB680246204602B0BDE81040184791
:10528C0002B010BD03689B68184738B50D21054660
:10529C00FFF7F8FF0A2104462846FFF7F3FF2044E6
:1052AC0038BD38B50546FFF7DBFF04462846FFF747
:1052BC00ECFF204438BD30B58BB00023012A8DF8AB
:1052CC00243098BF0A2209AC0D46B1FBF2F101FB68
:1052DC00125303F0FF03092B94BF30333733DBB287
:1052EC00AA4204F8013DEFD92146FFF7B9FF0BB0F4
:1052FC0030BD70477047704770470000064B9942AD
:10530C0010B500F10C0405D0084601F055FB00283F
:10531C0008BF0024204610BD486F0B00064B994275
:10532C0010B500F10C0405D0084601F045FB00282F
:10533C0008BF0024204610BD486F0B00064B994255
:10534C0010B500F10C0405D0084601F035FB00281F
:10535C0008BF0024204610BD486F0B0010B5682113
:10536C000446FEF794FE204610BD10B528210446D5
:10537C00FEF78DFE204610BD10B530210446FEF719
:10538C0086FE204610BD6821FEF781BE2821FEF75F
:10539C007EBE3021FEF77BBEF0B50025EC1C8C42A6
:1053AC000DD86E1C445D875D974205D12644B142F1
:1053BC0005D31D60601CF0BD01342544EEE70020D0
:1053CC00F9E70000024A03490A20FFF7A7BA00BF19
:1053DC00E9480B000C700B0030B40D4611461A4610
:1053EC00036809682868D3E90043A44630BC6047C9
:1053FC00012A38B5044602D10B68236003E0022A67
:10540C0003D0032A0DD0002038BD08200D68FEF70C
:10541C003AFE03460028F0D095E8030083E8030029
:10542C00EBE700680028EED00821FEF730FEEAE733
:10543C0010B504465830FFF72BFE04F14800BDE8C8
:10544C00104001F0C1B8A0F13003DAB2092A01D83A
:10545C0018467047A0F16103052B01D857387047E7
:10546C00A0F14103052B94BF37384FF0FF30704744
:10547C0010B500230370044B04461868FFF79CF921
:10548C0001232370204610BD08E7032010B50378D4
:10549C0004461BB1024B1868FFF796F9204610BD65
:1054AC0008E7032082B00346086849686A4603C2CD
:1054BC006A4603CA18601846596002B0704708B5AE
:1054CC0082798B799A4206D1062201F08DFBB0FAD3
:1054DC0080F0400908BD0020FCE74FF0FF3303606B
:1054EC0083800020704708B50246002101604160AE
:1054FC00FFF7F3FF9171104608BD000010B50123B2
:10550C000361054B024603F1100153F8044B42F8BA
:10551C00044B8B42F9D110BDB2710B0010B50B4688
:10552C000446B1B1012A01F110020AD1014653F827
:10553C00040B41F8040B9342F9D10123236120465B
:10554C0010BD411E12F8010D01F8010F9A42F9D15C
:10555C00F3E7102201F080FBF1E738B5044615465D
:10556C001A46FFF7DBFFA581204638BD08B5026956
:10557C0022B98089003818BF012008BD02491022C9
:10558C0001F032FBF6E700BFD2710B0000697047E7
:10559C0038B50C4614220021054601F05DFB236949
:1055AC001BB9A3892B80284638BD01232B742146B7
:1055BC002B4604F1100251F8040B43F8040B9142F2
:1055CC00F9D1F0E780897047704708B502690B691B
:1055DC009A4206D1102201F007FBB0FA80F0400984
:1055EC0008BD0020FCE7000001232DE9F341036115
:1055FC00344B0C460646024603F1100153F8040BDB
:10560C0042F8040B8B42F9D144B32421204601F01B
:10561C0086FB04284FF0000523D1ADF8045001AFF0
:10562C00A51C063415F8020CFFF70DFFB0F10008AD
:10563C0012DB15F8010CFFF706FF00280CDB023516
:10564C0040EA0810A54207F8010BEBD19DF8053094
:10565C0033739DF8043073730023336102B0BDE8DB
:10566C00F0814FF010082421204601F058FBA8428D
:10567C0007D842460021304602B0BDE8F04101F0A7
:10568C00EBBAB8F1000FE9D0605DFFF7DCFE030662
:10569C0015D4000108F1FF38C7B206F808702421B0
:1056AC00204601F03CFB0135A84208D9605DFFF7AC
:1056BC00CAFE40B20028A4BF384306F808000135E2
:1056CC00D1E700BFB2710B0013B504460191FFF78F
:1056DC0015FF20460199FFF787FF204602B010BD49
:1056EC0038B54FF6FF730025044643800E22294639
:1056FC0005700571063001F0AFFA04F11400FFF7E4
:10570C00FDFE04F12800FFF7F9FE044904F13C000A
:10571C0000F0A5FF6565204638BD00BF2D6E0B005F
:10572C0010B5D0E9063203EBC2029342184606D0FC
:10573C00046824888C4203F10803F6D110BD0020C4
:10574C00FCE70000F0B5064685B01F460D46002963
:10575C0050D0002A4ED004682378F42A28BFF422B3
:10576C0043B32379980709D5A08903920023FFF747
:10577C0067F80028039A03DA05B0F0BD6FF07700E4
:10578C0034682379D90609D5012F07D0A0890023C5
:10579C00294605B0BDE8F040FFF784B89B06EBD571
:1057AC00022FE9D0A0890023294605B0BDE8F040BE
:1057BC00FFF782B860884FF6FF7188421CD02179C0
:1057CC004E0701D5012F04D10B0709D46FF07700D8
:1057DC00D2E7A189009313462A46FFF745F8CBE799
:1057EC00022FF3D00023A189009313462A46FFF71A
:1057FC0031F8C1E70248BFE76FF0D100BCE700BF4A
:10580C00F2FEFFFF2DE9F041002606600746282036
:10581C000C46FEF738FC051E05F10C080FD00123D1
:10582C00C5E90133084B2B604046FFF767FE0FCCF0
:10583C002E6285F8246046460FC623683360C7E99C
:10584C0000853846BDE8F0817C710B0070B50025F1
:10585C00056006463020FEF716FC044688B101238D
:10586C00C0E90133094B03604FF6FF7383810E309F
:10587C00FFF739FEC4E90655C4E90855C4E90A55D1
:10588C00A57574600C343460304670BD98710B0093
:10589C0037B50D46044601A8FFF7EAFD2A68D2F891
:1058AC0002302360D2F80630636001A8FFF7EEFDEA
:1058BC00204603B030BD30B5054687B00C4601A874
:1058CC00FFF7D6FD2A68236812881B889A420DD1EF
:1058DC00294602A8FFF7DCFF214604A8FFF7D8FFF2
:1058EC0004A902A8FFF7EBFD044600B9002401A8A7
:1058FC00FFF7CCFD204607B030BD000010B50446C4
:10590C006420FEF7C0FB68B10023C0E90033C0E996
:10591C000233C0E90433C0E906330362C362C363D4
:10592C00C364C365206020B90A4A0B490A20FEF7FC
:10593C00F5FF0020FEF750FF20B1064A07490A2068
:10594C00FEF7ECFF216806480022FEF7A1FF204677
:10595C0010BD00BFE9480B000C700B004A700B0027
:10596C00F15E0B0010B50A4C2378BFF35B8FDB079D
:10597C000CD42046FEF78DFB40B10648FFF7BEFF66
:10598C002046FEF78BFB044801F028F9014810BDB6
:10599C0000E703200CE70320B95B0B0030B503686C
:1059AC00093B012B8DB004460D4611D8FFF7DAFFE9
:1059BC00A1880068FFF7B4FE034658B92022CDE950
:1059CC0004200B4A00920B4904AA3220FEF7AEFFCA
:1059DC000DB030BD6A6D002AFAD0D4E9032105F16F
:1059EC004C00CDE90312AC6D04AA03A9A047EFE764
:1059FC008C700B0023700B0008B50020FEF7ECFE3A
:105A0C0000EAE07008BD19B90A460846FEF7ECBE7C
:105A1C00D1E900010022F9E70368D8690028D4BF56
:105A2C0000200120704738B5141E4368054602DB80
:105A3C0062189A4200DD5C1A2A68501801191A443F
:105A4C00521A01F0EFF86A68121B6A6038BD37B55C
:105A5C000A4604460D4601ABD0E90001FFF79CFC59
:105A6C00024638B101992046FFF7DDFF2946204652
:105A7C00FFF7EDFF03B030BD10B50C4629B90A464F
:105A8C000846BDE81040FEF7B7BE01212046FFF7DF
:105A9C00DEFFD4E900010022F3E738B504461546D1
:105AAC00FFF7B1FF00280ADB29462046FFF7E4FF89
:105ABC00002804DBBDE838400020FEF7A5BE38BD49
:105ACC0038B500230446836008200D46FEF7DBFA48
:105ADC0018B12B6803606B684360034BE360034BA6
:105AEC002060A360204638BDE5530B00FD530B002E
:105AFC000B68036013B15A6801325A60704710B5D5
:105B0C0051F8043B044640F8043BFFF7F1FF2368CF
:105B1C000BB9FFF757FC204610BD10B551F8043BEC
:105B2C00044640F8043BFFF7E3FF204610BD10B5D8
:105B3C0051F8043B044640F8043BFFF7D9FF2046DC
:105B4C0010BD10B504460430FEF7D0FF204610BD42
:105B5C0070B5D0E90053044605EBC306AE4204D041
:105B6C00281DFEF7C3FF0835F8E72068FEF782FF13
:105B7C00204670BD70B5D0E90053044605EBC30652
:105B8C00AE4204D0281DFEF7B1FF0835F8E72068B7
:105B9C00FEF770FF204670BD10B504462430FFF7A9
:105BAC00E9FF04F11800FFF7D3FF10BD70B5174BD8
:105BBC001C6854B304F15400FFF76AFA04F1440072
:105BCC00FFF766FA04F13400FFF762FA04F12400DF
:105BDC00FFF75EFAD4E9065305EBC306AE4204D0D8
:105BEC00281DFEF783FF0835F8E7A069FEF742FF92
:105BFC0004F10C00FFF7BEFF2046FFF7A9FF20467B
:105C0C006421BDE87040FEF742BA70BD0CE703207A
:105C1C0013B50023D1E90042C1E9003303680093B6
:105C2C0004604368426001A80193FEF75FFF02B075
:105C3C0010BD826810B50AB900F0BAFEBDE810407C
:105C4C00C368184708B583688B4202DAFFF717F967
:105C5C0008BD0120FCE72DE9F0410F4641681D46C7
:105C6C001944836899420446904612DC266862689F
:105C7C003E44D21B3146701900F0D4FF2A464146EF
:105C8C00304600F0C1FF63682B4463600120BDE81F
:105C9C00F081FFF7F4F80028E8D1F8E7F8B50D46E5
:105CAC00D0E901139942044616460BDA276862685C
:105CBC007919521B481C00F0B5FF7E5563680133FF
:105CCC006360F8BD0131FFF7DAF80028EED1F8E790
:105CDC000A464168FFF7E2BF2DE9F74304461D462B
:105CEC000F4601AB90460A46D0E900019DF828907A
:105CFC00FFF752FBAE1C63680246B9F1000F26D1C8
:105D0C0028B333441B1AFF2B09D801992046FFF7FF
:105D1C008AFE616820463144FFF794FF18B9606829
:105D2C0003B0BDE8F0836A1C0199D2B22046FFF79C
:105D3C00B5FF01993A4601312046FFF7AFFF0199B3
:105D4C002B46424602312046FFF785FFE7E7F11864
:105D5C00FF29E4D82046FFF775FF0028DFD0691C27
:105D6C00C9B22046FFF7B4FF39462046FFF7B0FF13
:105D7C0061682B464246E6E730B49DF808501AB1EC
:105D8C00029530BCFFF7A8BF406830BC70471FB508
:105D9C000023C0E9003383600622009301238DF8B1
:105DAC000F2019460DF10F020446FFF7E5FF2046C0
:105DBC0004B010BD1FB50A460446142110460392C8
:105DCC0000F0ADFF002103460091039A0921204603
:105DDC00FFF7D2FF04B010BD8842F8B504460D465B
:105DEC00164614D9904213D2A2F10806751AA1F1E5
:105DFC0008072C44B74218D01CB131462046FFF797
:105E0C0096FE301DFEF772FE083E083CF2E70CD001
:105E1C00B5420AD01CB129462046FFF788FE281D42
:105E2C00FEF764FE08350834F2E7F8BDF7B5044612
:105E3C0046686846FFF77BFED4E901739F4212DB8C
:105E4C000137002F29DDF800FEF70CFE0546F0B1F6
:105E5C00D4E9001201EBC202FFF7BEFF2068FEF787
:105E6C0009FE2560A7602368626803EBC60603EB96
:105E7C00C202314606F10800FFF7AEFF1EB16946BB
:105E8C003046FFF754FE636801336360012501A8B7
:105E9C00FEF72CFE284603B0F0BD0025DEE7F8B572
:105EAC00D0E9004305460F4604EBC306A64205D0D5
:105EBC0039462046FFF7FFFC08B114B9F8BD083489
:105ECC00F4E7201DFEF712FED5E9003204F10801BB
:105EDC0003EBC2022046FFF77FFF6B68013B6B6050
:105EEC00ECE700002DE9F04105468EB003A80C4606
:105EFC00FFF7BEFA2E68F31E0D2B3CD8DFE813F02B
:105F0C000E0053003B00D1003B003B003B003B002C
:105F1C003B009B009B009B009B009B0004A8FFF791
:105F2C0095FC049BAA891A80696804980831023090
:105F3C00FFF7B8FA04A906A8FFF7F9FD06A904F1C2
:105F4C001800FFF773FF054607A8FEF7CFFD2023C7
:105F5C000693B5B95D4B5E49009332202B4606AAD9
:105F6C000795FEF7E3FC049B29461888FEF754FCC2
:105F7C0005A8FEF7BBFD03A8FFF788FA0EB0BDE835
:105F8C00F081544A009200235149079306AA01203C
:105F9C00FEF7CCFCE36A002BEAD004A904F1240040
:105FAC00FFF747FEE4E7A9892046FFF7B9FB064651
:105FBC000028E0D00568D5E906324FF6FF7129803C
:105FCC0003EBC2029A4203D053F8080B4180F9E765
:105FDC00D5E9037307EBC308B84504D0381DFEF7A9
:105FEC0085FD0837F8E700232B61D5E9067307EB2D
:105FFC00C308B84504D0381DFEF778FD0837F8E71C
:10600C000023EB61AB72E36B23B1314604F1340036
:10601C00FFF70FFE00232022CDE906232E4A009223
:10602C002B4906AA0120FEF781FC314604F1180029
:10603C00FFF735FF9FE7A9892046FFF771FB002882
:10604C0099D0E36C002B96D000230D2EADF81630B2
:10605C0001D0102E17D1002369681A4606258DF839
:10606C00153004918DF814200690DDE9040109AB7C
:10607C008DF81C60089583E80300236D06A904F1D4
:10608C004400984777E70F2E01BF2B7A696803F01D
:10609C00010208250FBFC3F340031A4619461D46DB
:1060AC00DDE7A9892046FFF73BFB014600283FF4BA
:1060BC0062AFE36D002B3FF45EAF6B68069306AAEC
:1060CC00236E04F15400984755E700BFA4700B00F1
:1060DC0023700B00CA700B00E7700B0038B5054637
:1060EC000C46FEF7DEFFAB68A268AA60A360EB6803
:1060FC00E268EA60E36038BD70B504468CB00E46C9
:10610C0001921D46FFF7ECFA2671019904F13C004F
:10611C0000F0D3FA04F14C06CDB1109B029502A904
:10612C0004A80393FFF7CCFC002308A904A80A9346
:10613C00FFF7D4FF314608A8FFF7D0FF08A8FEF7F9
:10614C00A7FF04A8FEF7A4FF20460CB070BD06956F
:10615C00EAE700002DE9F04F87B01D46DDE910435A
:10616C0080468B4692461299039300226820029136
:10617C000492FDF788FF061E06F10C0918D00122C7
:10618C003746C6E901220299154A47F8202B039B92
:10619C0000915A4651464846FFF7AEFF0FCD0FC748
:1061AC002B683B600FCC06F134050FC523682B60C0
:1061BC0004A94046CDE90496FFF72AFD05A8FEF791
:1061CC0095FCD8F800303BB9064A07490A2007B0BD
:1061DC00BDE8F04FFEF7A2BB07B0BDE8F08F00BFE3
:1061EC0060710B00E9480B000C700B008842F8B58D
:1061FC0004460D46164614D9904213D2A2F1080655
:10620C00751AA1F108072C44B74218D01CB13146BD
:10621C002046FFF782FC301DFEF768FC083E083C68
:10622C00F2E70CD0B5420AD01CB129462046FFF744
:10623C0074FC281DFEF75AFC08350834F2E7F8BD4B
:10624C0070B50E1E054611DDF000FEF70BFC044682
:10625C0058B1D5E9001201EBC202FFF7C7FF28685D
:10626C00FEF708FC2C60AE60012070BD0024F6E740
:10627C0073B5044645686846FFF74FFCD4E9011333
:10628C00994210DA2368626803EBC50503EBC2027E
:10629C00294605F10800FFF7A9FF8DB963680133A2
:1062AC006360012606E001312046FFF7C9FF064670
:1062BC000028E7D101A8FEF719FC304602B070BDEA
:1062CC0069462846FFF729FCE8E78842F8B50446FA
:1062DC000D46164614D9904213D2A2F10806751A2F
:1062EC00A1F108072C44B74218D01CB13146204606
:1062FC00FFF705FC301DFEF7F9FB083E083CF2E702
:10630C000CD0B5420AD01CB129462046FFF7F7FB4A
:10631C00281DFEF7EBFB08350834F2E7F8BD70B525
:10632C000E1E054611DDF000FEF79CFB044658B12D
:10633C00D5E9001201EBC202FFF7C7FF2868FEF790
:10634C0099FB2C60AE60012070BD0024F6E773B59C
:10635C00044645686846FFF7D2FBD4E9011399421D
:10636C0010DA2368626803EBC50503EBC202294609
:10637C0005F10800FFF7A9FF8DB96368013363606D
:10638C00012606E001312046FFF7C9FF064600282A
:10639C00E7D101A8FEF7AAFB304602B070BD6946F2
:1063AC002846FFF7ACFBE8E72DE9F04F1746A1B004
:1063BC0080460AA80E46FFF75BF83C68237953B970
:1063CC0039464046FFF79BFB0AA8FFF75FF84046AB
:1063DC0021B0BDE8F08F3368D3E9035305EBC30359
:1063EC00039304F1280A04F1140B039B9D4221D062
:1063FC00D5F80090584609F11401FFF7E6F8B8B14A
:10640C0009F128015046FFF7E0F888B12368D9F864
:10641C000020534033F47F430AD12022CDE91523C9
:10642C005E4A009215AA5E493220FEF77FFAC7E752
:10643C000835DAE75046FFF799F860B95949012257
:10644C0015A815ADFFF76AF80FCDD446ACE80F00D0
:10645C002B68CCF800303368D3E9005305EBC30B41
:10646C005D45A94651466ED055F8080BFFF7ADF8BF
:10647C000028F5D004F1140A5046FFF777F888B9D4
:10648C00494B48491A88013292B21A8015A8012347
:10649C0015ADFFF762F80FCDD446ACE80F002B68B2
:1064AC00CCF80030414B15932822002116A800F09F
:1064BC00D3FB514604A8FFF76BF804AB18AA0DF1F7
:1064CC00200C18685968154603C5083363452A46DD
:1064DC00F7D11868286023798DF85830D9F8003036
:1064EC009B8AADF87430E36B1793314B0022A11DDE
:1064FC0015A8CDE91E34FEF7C1F900287FF460AF72
:10650C0001232370346839460C340DA8FFF7F7FAD1
:10651C0020460DA9FFF71BFF04460EA8FEF7E6FA6E
:10652C00002C7FF44DAF2023CDE90D34214B00938B
:10653C000DAA234677E739464046FFF7E0FA0CA848
:10654C00FEF7D4FA40E70BA8FFF75CF9514615A803
:10655C00FFF71EF80B9A0023143215A90120FEF741
:10656C0065F90028E7D135680BA90DA8FFF7D5FA16
:10657C0028460DA9FFF77CFE05460EA8FEF7B6FAD5
:10658C00002DD8D032685368126803F10053013BD8
:10659C000CA802EBC309FEF7A9FA6BE706710B0016
:1065AC0023700B00C2710B0004E7032003002C00C6
:1065BC00A9590B0031710B00024800230360FEF750
:1065CC00F3B800BF08E7032010B504460068FEF7D7
:1065DC0051FA204610BD10B50446006808B1FEF70C
:1065EC0049FA0023C4E90133236010BD38B50446D1
:1065FC000D4600680131FEF745FA10B1C4E90005FB
:10660C00012038BD10B50368044623B143688B42A2
:10661C0001D3012010BD2046FFF7E8FF0028F9D078
:10662C00A368002BF5D122681370F2E737B50D463D
:10663C00114601920446FFF7E5FF019A28B920465E
:10664C00FFF7C9FF204603B030BDA2602946206881
:10665C0000F0DAFA2268A3680021D154F2E7002393
:10666C0013B5C0E9003304468360037341B1084697
:10667C00019100F039FB019902462046FFF7D6FF45
:10668C00204602B010BD884210B5044605D00B68F8
:10669C002BB18A681946FFF7C9FF204610BDFFF7DA
:1066AC009AFFFAE710B500230446C0E90033836073
:1066BC000373FFF7E8FF204610BD13B5044659B12C
:1066CC000846019100F010FB019902462046FFF7A5
:1066DC00ADFF204602B010BDFFF77DFFF9E710B506
:1066EC0004468AB00023C4E90033A3602373084630
:1066FC0001A900F078F801A92046FFF7DEFF20463B
:10670C000AB010BD70B505460E4609B9002070BD23
:10671C006AB1846814442146FFF774FF0028F5D051
:10672C002868AB683146184400F0D6FAAC600120FA
:10673C00EDE710B58A6809680446FFF7E3FF10B966
:10674C002046FFF748FF204610BD58B50E462AB12B
:10675C0021B18468A34202D300230B7058BDE41A04
:10676C00013A0168944228BF144619442246304627
:10677C0000F0C2FA00233355F0E710B5044600F0E0
:10678C00B3FA013823182046834206D902781978C7
:10679C0000F8011B03F80129F6E710BD70B50C4693
:1067AC00911E22291DD8254630B9234430229D4202
:1067BC0010D205F8012BFAE7B0FBF2F602FB16003B
:1067CC00C1B2092894BF30315731C9B205F8011B49
:1067DC003046E9E7002320462B70FFF7CEFF20461A
:1067EC0070BD0020FCE738B5031E0C4615460EDACA
:1067FC00B3F1004F4FF02D0214BF5842184601233D
:10680C000A702A461944FFF7C9FF204638BD0123F8
:10681C00F9E70000054B02221A60054B054A9A6005
:10682C000020C3E90000FEF7F1B800BF1CE703200D
:10683C0010E703200000FFFF002240681146FEF71E
:10684C00BDB8002240681146FEF7C8B84068002267
:10685C00FEF7BCB84068002281F00101FEF7A6B833
:10686C00002340681A461946FEF798B80023406882
:10687C001A461946FEF78AB8002240681146FEF700
:10688C007DB8002240681146FEF768B840680022C7
:10689C000221FEF76BB8002340681A46FEF756B883
:1068AC00024B03225A60024A1A60704720E7032009
:1068BC00EC710B007047000038B5202514230446FA
:1068CC000360856005610649284600F06FF80449AD
:1068DC006060284600F06AF8E060204638BD00BFD2
:1068EC0020720B0030B50E4D2978BFF35B8F11F081
:1068FC00010487B011D12846FDF7CBFB68B101A884
:10690C00FFF7DAFF01AA21460648FEF765FA28468A
:10691C00FDF7C4FB044800F061F9024807B030BD34
:10692C0028E703202CE70320C1680B007047000008
:10693C0038B5044614252A46002100F08DF925802F
:10694C004025074925812846258200F02FF8044967
:10695C006060284600F02AF8E060204638BD00BF91
:10696C0020720B0030B50E4D2978BFF35B8F11F000
:10697C00010487B011D12846FDF78BFB68B101A843
:10698C00FFF7D6FF01AA21460648FEF7E5F928468F
:10699C00FDF784FB044800F021F9024807B030BD34
:1069AC0044E7032048E7032039690B00FDF76DBB72
:1069BC0008B5FEF76FF80000014900F0F9B800BF08
:1069CC003C720B007FB500241023CDE90234036820
:1069DC0015469E6912686B46CDE90044B0479DF898
:1069EC00043003F00603062B03BF009B2B60012031
:1069FC00204604B070BD0098904214BF01200620C0
:106A0C007047000010B5034B0360044600F0CDF84E
:106A1C00204610BD7C720B0010B50446FFF7F2FF48
:106A2C0020460821FDF733FB204610BD2DE9F0412F
:106A3C001F46DDE90834DDF81880984506461546F2
:106A4C0007D1079900F0B4F818B165710020BDE8C2
:106A5C00F0813946304600F0ABF80028F6D001231F
:106A6C00C4F800802571A371F0E738B515461C46B3
:106A7C0000F09EF820B10823E36006232560237103
:106A8C0038BD73B505460C4601921E4600F090F8D1
:106A9C0050B9032E08D82368019A5B692946204611
:106AAC0002B0BDE87040184702B070BD10B5034B82
:106ABC0003600446FFF7A6FF204610BDDC720B00F6
:106ACC0010B50446FFF7F2FF20460C21FDF7DFFA64
:106ADC00204610BDF7B5089F974205460E46144652
:106AEC000AD0A86802680897156A31462246AC4657
:106AFC0003B0BDE8F04060471946019300F058F828
:106B0C00019B0028EDD0062003B0F0BD2DE9F14F1C
:106B1C000D461946DDE90A4BDDE90CA68146174600
:106B2C00984600F045F890B1002D3460377109DBC0
:106B3C0061198A450CBF06210121B171002001B0F9
:106B4C00BDE8F08F0235F9D10123B371F6E7544556
:106B5C0006D15946484600F02BF808B17771EDE79D
:106B6C00D9F808000368CDE90CA6CDE90A4BDC691D
:106B7C003A4643462946A44601B0BDE8F04F60476B
:106B8C002DE9F04107460C4615461E46FFF76DFFF2
:106B9C0048B9B86803689F692A4633462146BC4603
:106BAC00BDE8F0416047BDE8F081704700207047B8
:106BBC00814208B50ED0406803782A2B0CD0496866
:106BCC000B782A2B08BF013100F07CF8B0FA80F06A
:106BDC00400908BD0120FCE70020FAE7002301462C
:106BEC001A46184600F0A8B810B501390244904274
:106BFC0001D1002005E0037811F8014FA34201D028
:106C0C00181B10BD0130F2E70A44914200F1FF332A
:106C1C0000D1704710B511F8014B03F8014F9142A8
:106C2C00F9D110BD884210B501EB020402D984429F
:106C3C00234607D8431EA14208D011F8012B03F8B4
:106C4C00012FF8E7024401468A4200D110BD13F827
:106C5C00014D02F8014DF7E702440346934200D17F
:106C6C00704703F8011BF9E738B5104B1D68AB6B87
:106C7C000446B3B91820FDF7F5FE0246A86320B907
:106C8C000B4B0C484221FDF70DFF0B490B4BC0E998
:106C9C0000130B4B83600B23838100210120C2E97D
:106CAC000401AB6B00221C615A6138BDE0E5032086
:106CBC0015730B002C730B000E33CDAB34126DE639
:106CCC00ECDE050010F8012B11F8013B012A28BF5E
:106CDC009A42F7D0D01A7047034611F8012B03F8EB
:106CEC00012B002AF9D17047034613F8012B002A17
:106CFC00FBD1181A0138704710B50139034632B16F
:106D0C0011F8014F03F8014B013A002CF7D11A444A
:106D1C000021934200D110BD03F8011BF9E710B517
:106D2C00024601448A42134603D01C780132002CDF
:106D3C00F8D1181A10BD00002DE9F843DFF8B8801F
:106D4C000646D8F800001F460D46914600F056F84E
:106D5C00254B1C6834B9254C1C60254B13B11B68A2
:106D6C00C4F8883063681F2B07DDD8F8000000F0EA
:106D7C0047F84FF0FF30BDE8F8834EB3D4F88800E5
:106D8C0088B91C4B23B9D8F8000000F038F8F0E7AC
:106D9C004FF48470FDF766FE0028F4D00023C0E9A0
:106DAC004033C4F88800636840F8239001229A406D
:106DBC0000EB8301D0F800311343C0F80031022EF0
:106DCC00C1F8807002BFD0F804311343C0F804310D
:106DDC006368D8F800005A1C0233626044F82350F0
:106DEC0000F00EF80020C6E7E8E703205CE703207C
:106DFC0000000000714A0B0044E603207047704706
:106E0C00704700001D400B0059400B0081400B00E7
:106E1C0085400B00000000006D6178696D75730092
:106E2C00200036453430303030312D423541332D51
:106E3C00463339332D453041392D453530453234C3
:106E4C004443434139450036453430303030322DDF
:106E5C00423541332D463339332D453041392D459B
:106E6C00353045323444434341394500364534309E
:106E7C00303030332D423541332D463339332D45A7
:106E8C003041392D45353045323444434341394541
:106E9C0000747800727800646576696365206E6FA3
:106EAC007420666F756E6400000000000000000026
:106EBC00DD430B00DF430B00DD440B0035440B00BE
:106ECC00ED430B000000000000000000094B0B001C
:106EDC00134B0B001D4B0B00274B0B00314B0B00C6
:106EEC003D4B0B00494B0B00514B0B00594B0B000E
:106EFC00654B0B006D4B0B00774B0B00814B0B0064
:106F0C000000000000000000CB4C0B00C14C0B003B
:106F1C00B74C0B006D4C0B00AB4C0B009F4C0B009B
:106F2C00494B0B00514B0B00934C0B008B4C0B0043
:106F3C00814C0B00774C0B00814B0B0000000000C8
:106F4C00000000000000000000000000E94C0B00F5
:106F5C00554D0B002D4D0B0041520B00FD4C0B0001
:106F6C00194D0B000B4D0B00274D0B00EB4C0B0080
:106F7C00EF4C0B0000000000000000008D4D0B00DA
:106F8C00D74D0B00AF4D0B008F4D0B00B74D0B00C9
:106F9C00BF4D0B00C74D0B00CF4D0B000000000088
:106FAC0000000000B14E0B00194F0B00EF4E0B0010
:106FBC0041520B00E14E0B00B34E0B00C34E0B00C5
:106FCC00134F0B00D34E0B00AB4E0B000000000018
:106FDC0000000000BD4F0B00AD4F0B00AF4F0B007E
:106FEC0025592D256D2D25645425483A254D3A25D6
:106FFC0053257A0061736374696D6500617070006C
:10700C00417373657274696F6E4661696C757265F4
:10701C002066616C736500776972696E672E626CAD
:10702C006500537461727420646973636F76657262
:10703C00696E672073657276696365732E004173A0
:10704C0073657274696F6E4661696C7572652068E0
:10705C00616C5F626C655F737461636B5F696E69B1
:10706C0074286E756C6C70747229203D3D205359D8
:10707C005354454D5F4552524F525F4E4F4E450053
:10708C005065657220646576696365206973206D4F
:10709C00697373696E6721004661696C656420745D
:1070AC006F20617070656E64207065657220436539
:1070BC006E7472616C206465766963652E00436F33
:1070CC006E6E65637465642062792043656E7472BC
:1070DC00616C206465766963652E00446973636F27
:1070EC006E6E65637465642062792072656D6F7471
:1070FC0065206465766963652E004475706C696300
:10710C00617465642063686172616374657269732C
:10711C007469632063616E6E6F74206265206164B4
:10712C006465642E004661696C656420746F20612F
:10713C007070656E64206C6F63616C206368617243
:10714C00616374657269737469632E0000000000DA
:10715C000000000005530B0069530B003D540B005D
:10716C0093530B0009530B000000000000000000BB
:10717C0001530B0077530B0003530B0099530B0077
:10718C0029530B000000000000000000FF520B0010
:10719C0085530B00A55B0B009F530B0049530B0051
:1071AC00000000000000FB349B5F8000008000109A
:1071BC000000000000007BE327747BF815ACDD4970
:1071CC00A913000072F5FB349B5F80000080001057
:1071DC0000000000000000000000000000000000A3
:1071EC00A3680B0099680B008F680B0085680B0077
:1071FC0079680B006D680B00494B0B00514B0B0071
:10720C0061680B0059680B004F680B0045680B0058
:10721C00814B0B0000537431395F53705F6D616BA0
:10722C00655F7368617265645F746167000000007C
:10723C007C720B0021720B00DC720B0050720B0085
:10724C0000730B004E31305F5F6378786162697652
:10725C003131375F5F636C6173735F747970655F35
:10726C00696E666F450000000000000044720B0060
:10727C00116A0B00256A0B00B96B0B00B96B0B0084
:10728C008F6A0B00D1690B00776A0B00396A0B000F
:10729C00036A0B00DC720B00AC720B0044720B0027
:1072AC004E31305F5F637878616269763132305F7E
:1072BC005F73695F636C6173735F747970655F6929
:1072CC006E666F450000000000000000A0720B000D
:1072DC00B96A0B00CD6A0B00B96B0B00B96B0B00D4
:1072EC008F6A0B00D1690B008D6B0B00196B0B00B7
:1072FC00E16A0B007C720B0008730B005374397439
:10730C007970655F696E666F005245454E54206D0D
:10731C00616C6C6F63207375636365656465640091
:10732C002F6D6E742F776F726B73706163652F772F
:10733C006F726B73706163652F4743432D31302D32
:10734C00706970656C696E652F6A656E6B696E73BA
:10735C002D4743432D31302D706970656C696E6516
:10736C002D34385F32303230313132345F31363097
:10737C00363138303634312F7372632F6E65776C3B
:10738C0069622F6E65776C69622F6C6962632F730B
:10739C0074646C69622F72616E642E63000000006D
:1073AC0095420B00594C0B00D54C0B0011520B00A5
:1073BC001D520B0031520B00C5650B0021680B00F0
:0473CC00AD680B009D
:1073D000040000001400000003000000474E5500A8
:1073E0003AC83FB5E8EF70C6E26AD57915F4391CA2
:0473F000DC8D7E0DA5
:0473F4000000000095
:1073F80000700B00E4E5032000000000000000001E
:107408000000000000000000000000000000000074
:107418000000000000000000000000000000000064
:107428000000000000000000000000000000000054
:107438000000000000000000000000000000000044
:107448000000000000000000000000000000000034
:0C7458000000000000000000ECE7032032
:10746400FFFFFFFF00000102030405060708090AE5
:107474000B0C0D0E0F101112131415161718191AE0
:087484001B1C1D1E1F20280027
:04748C0078563412E8
:04000003B000401CED
:00000001FF
